:020000001F29B6
:10000600710DF80DF90D7408F8027508031C750FCB
:10001600F902F00DF10D0F30FC00710DF80DF90D20
:100026007408701C1C28F8027508031C750FF90269
:100036002128F80775080318750FF907F00DF10D5B
:10004600FC0B102870182D287408F807750803187B
:08005600750FF9070000080016
:10005E00831203137408003A031D3E287508003AF4
:10006E00031D3E28FF30F0007F30F10097288312E9
:10007E000313FD01F901F80171087004031900342E
:10008E0071087506FA00FA1BFD09FB01F51F5428CD
:10009E00F409F509F40A0319F50AF11F5B28F009B2
:1000AE00F109F00A0319F10A71087504FA00FA1B36
:1000BE00702803207B188328FD1F0034F009F109F6
:1000CE00F00A0319F10AF809F909F80A0319F90AED
:1000DE000034F51F7F28F11B7B287108F90070088A
:1000EE00F800F101F0016328F101F001F00A00348B
:1000FE00F109F009FB0A6028F80A0319F90A7408D5
:10010E007802031D632875087902031D6328F9011F
:10011E00F801F00A0319F10AF11F63280000FF34F9
:02012E000800C7
:0E0130008312031327088A00260882000800A5
:10013E000A3083120313F4000030F5002408F00097
:10014E002508F1002F207008A8007108A9000A30B8
:10015E00F4000030F5002408F0002508F1002F20EF
:10016E007808F0007908F1007008AC007108AD0055
:10017E000A30F4000030F5002008F0002108F100EC
:10018E002F207008AE007108AF000A30F400003066
:10019E00F5002008F0002108F1002F207808F0006B
:1001AE007908F1007008AA007108AB00A201A30142
:1001BE008030F000803023067002031DE8282208EC
:1001CE00323C031C122985150511851405102808CB
:1001DE0086002E0888003430FC00F130FD00FD0B47
:1001EE00F628FC0BF6280000000085110515851079
:1001FE0005142C0886002A0888003430FC00F130E3
:10020E00FD00FD0B0829FC0B082900000000A20AC6
:08021E000319A30ADF28080000
:1002260098208A110A128000840AA60A0319A70ACE
:08023600F003031D1329080069
:10023E0083120313A001A101A201A301A401A50130
:10024E008316860188010808870083128701070834
:10025E008600073083169F0085010130890001302A
:10026E0083128800091C3C2939291730A40000305C
:10027E00A5001730A0000030A10080302506F00048
:10028E0080307002031D4D2900302402031C862984
:10029E0080302106F00080307002031D5829003096
:1002AE002002031C86291730B0000030B100173031
:1002BE00B2000030B3009F2087158030F0008030F0
:1002CE0025067002031D6D292408143C031C7D298C
:1002DE008030F000803021067002031D782920083E
:1002EE00143C031C7D298711071587170130A402C2
:1002FE00031CA5030130A002031CA103442987118E
:10030E008713871B8C2907118D2907150F30A40021
:10031E000030A5000F30A0000030A100803025066F
:10032E00F00080307002031D9E2900302402031C51
:10033E00D72980302106F00080307002031DA929D4
:10034E0000302002031CD7290F30B0000030B1005E
:10035E000F30B2000030B3009F2007178030F0003E
:10036E00803025067002031DBE2924080C3C031C98
:10037E00CE298030F000803021067002031DC9297D
:10038E0020080C3C031CCE290716871607130130D4
:10039E00A402031CA5030130A002031CA10395298E
:0803AE00071287123C29DA292D
:02400E004A2F37
:00000001FF
